:100000000C9435010C9466010C9466010C94660105
:100010000C9466010C9466010C9466010C946601C4
:100020000C9466010C9466010C9466010C946601B4
:100030000C9466010C94BD080C9466010C94660146
:100040000C9466010C948F080C9466010C94660164
:100050000C9466010C9466010C9466010C94FB06EA
:100060000C9466010C94CF070C94A5070C946601C0
:100070000C9466010C9466010C9466010C94660164
:100080000C9461080C9466010C9466010C94660152
:100090000C9466010C9466010C9466010C94660144
:1000A0000C9466010C9466010C9433080C94660160
:1000B0000C9466010C9466010C9466010C9405087E
:1000C0000C9466010C9466010C9466010C94660114
:1000D0000C9466010C9466010C946F070C94450710
:1000E0000C9466010C9442040C94BE020C94C2025F
:1000F0000C946C020C94B4020C94F2030C94B002B5
:100100000C949E030C948F030C94A2020C94A602F0
:100110000C94AA020C9483020C9471020C94920227
:100120000C9487020C948F040C94E6080C94000441
:100130000C94B8020C9462030C949C020C948B02F5
:100140000C9498020C948F0200000A0B02090C0D0B
:100150000E0807030401000000000000000000007A
:10016000000000000000000000000000000000008F
:10017000000000001211100000000000000000004C
:10018000000000000000000000000000000000006F
:100190002100240027002A002D0030003300010137
:1001A0000000040107010A010000200023002600CE
:1001B00029002C002F00320000010000030106017D
:1001C000090100002200250028002B002E0031002C
:1001D000340002010000050108010B0105050505B9
:1001E000070508080808020202020A0A08080404AF
:1001F00004040101010101010101030303030303DD
:100200000303040707070C0C0C0C0C0C0C0C02026B
:10021000020206060606060606060B0B0B0B0B0B68
:100220000B0B0102102020080810204010204080F5
:1002300002010201080402010102040810204080AA
:100240008040201008040201800402018040201038
:100250000804020108040201010204081020408081
:100260000102040810204080E60811241FBECFEFD1
:10027000D1E2DEBFCDBF00E00CBF12E0A0E0B2E0F3
:10028000ECECFEE100E00BBF02C007900D92A23B38
:10029000B107D9F724E0A2EBB2E001C01D92A33B65
:1002A000B207E1F711E0C5E3D1E000E006C0219715
:1002B0000109802FFE010E943D0DC433D10780E06B
:1002C0000807A9F70E94420A0C94640F0C940000DE
:1002D00090E0FC01EE5DFD4F249184529E4FFC01A5
:1002E0008491882399F090E0880F991FFC01E257D0
:1002F000FE4FA591B491FC01EE53FE4F8591949170
:100300008FB7F894EC91E22BEC938FBF0895FC012A
:10031000A089B18982E08C93A485B5851C92A685BD
:10032000B7858FEC8C93108EA489B58986E08C9369
:10033000A289B3898C9180618C93A289B3898C91B5
:1003400088608C93A289B3898C9180688C93028891
:10035000F389E02D80818F7D808308958F929F9215
:10036000AF92BF92FF920F931F93CF93DF93F090C2
:10037000A4042FE22F1508F44CC02091A60408E530
:1003800012E0021B110927FD1395000F111F000F2A
:10039000111F2091A504C8E8D0E0C21BD10927FD98
:1003A000D395CC0FDD1FCC0FDD1F4E010D2E000CA1
:1003B000AA08BB089801012E000C440B550B281904
:1003C00039094A095B09DC010E94F80C24EB30E092
:1003D00040E050E00E94CE0C820E931EA41EB51E7B
:1003E0008C169D062CF0E801801691060CF4E401B1
:1003F0002297CC0FDD1F2FB7F8948F2D90E0FC01D2
:10040000EE0FFF1FE80FF91FE250FC4FD283C183AC
:100410002FBFDF91CF911F910F91FF90BF90AF90B1
:100420009F908F900895FC018081823081F018F4B4
:10043000813031F00895833089F08430B1F008952F
:1004400084E690E09093890080938800089584E684
:1004500090E090939D0080939C00089584E690E046
:100460009093A9008093A800089584E690E090936B
:100470009900809398000895282F30E0F901E85BF7
:10048000FE4F9491F901EE5DFD4F449124523E4F91
:10049000F9012491222309F435C0992311F19150D7
:1004A0009231F8F4E92FF0E08827E65AFD4F8F4F9C
:1004B0000C943D0D8B028F026C0283028702710245
:1004C000920298029C02A202A602AA02B002B40200
:1004D0007102B802BE02C202809180008F778093C1
:1004E0008000E22FF0E0EE0FFF1FEE53FE4FA591CC
:1004F000B4918FB7F894EC91611148C040954E23A8
:100500004C938FBF0895809180008F7DE8CF8091BC
:100510008000877FE4CF84B58F7784BDE2CF84B538
:100520008F7DFBCF8091B0008F778093B000D9CFC3
:100530008091B0008F7DF9CF809190008F7780936C
:100540009000CFCF809190008F7DF9CF8091900067
:10055000877FF5CF8091A0008F778093A000C1CFD7
:100560008091A0008F7DF9CF8091A000877FF5CF8B
:10057000809120018F7780932001B3CF809120015B
:100580008F7DF9CF80912001877FF5CF4E2BB8CF9B
:10059000CF93DF9360E08CE00E943C0260E088E053
:1005A0000E943C02C7E0D0E060E084E00E943C0290
:1005B00080918F0490E00C2E02C0959587950A9447
:1005C000E2F761E080FF60E088E00E943C0261E0C9
:1005D00084E00E943C02219738F761E08CE0DF91D3
:1005E000CF910C943C028CE00E94680187E00E944D
:1005F000680188E00E94680184E00E94680110920E
:100600008F040E94C80260E087E00C943C023FB770
:10061000F8948091BC029091BD02A091BE02B0916D
:10062000BF0226B5A89B05C02F3F19F00196A11D5A
:10063000B11D3FBFBA2FA92F982F8827BC01CD012C
:10064000620F711D811D911D42E0660F771F881F8B
:10065000991F4A95D1F708958F929F92AF92BF92BA
:10066000CF92DF92EF92FF920E9407034B015C0151
:1006700084EFC82EDD24D394E12CF12C0E940703D3
:10068000681979098A099B09683E734081059105BB
:10069000A8F321E0C21AD108E108F10888EE880E1B
:1006A00083E0981EA11CB11CC114D104E104F10423
:1006B00029F7FF90EF90DF90CF90BF90AF909F9081
:1006C0008F900895AF92BF92CF92DF92EF92FF92F8
:1006D0000F931F93CF93DF936C017B018B01040F6A
:1006E000151FEB015E01AE18BF08C017D10759F006
:1006F0006991D601ED91FC910190F081E02DC60148
:100700001995892B79F7C501DF91CF911F910F9131
:10071000FF90EF90DF90CF90BF90AF900895FC01D5
:10072000538D448D252F30E0842F90E0821B930B56
:10073000541710F0CF96089501970895FC01918DFC
:10074000828D981761F0A28DAE0FBF2FB11D5D96FF
:100750008C91928D9F5F9F73928F90E008958FEFA1
:100760009FEF08952FB7F8948091C0029091C10235
:10077000A091C202B091C3022FBF8093CC0290938C
:10078000CD02A093CE02B093CF0284EC92E00E94FF
:100790009E0397FF26C02FB7F8948091C0029091D6
:1007A000C102A091C202B091C3022FBF4091CC02FE
:1007B0005091CD026091CE027091CF02841B950BB7
:1007C000A60BB70B4091C8025091C9026091CA02B2
:1007D0007091CB0284179507A607B707B0F28FEF89
:1007E0009FEF0895FC01918D828D981731F0828DD5
:1007F000E80FF11D858D90E008958FEF9FEF08952C
:10080000FC01918D228D892F90E0805C9F4F821B8F
:1008100091098F739927089584EC92E00E94000457
:1008200021E0892B09F420E0822F089581E693E0EE
:100830000E94000421E0892B09F420E0822F089512
:10084000FC01A48DA80FB92FB11DA35ABF4F2C9145
:10085000848D90E001968F739927848FA689B7893C
:100860002C93A089B1898C91837080648C93938D33
:10087000848D981306C00288F389E02D80818F7DD6
:1008800080830895EF92FF920F931F93CF93DF938E
:10089000EC0181E0888F9B8D8C8D98131AC0E889BC
:1008A000F989808185FF15C09FB7F894EE89FF898B
:1008B0006083E889F98980818370806480839FBF29
:1008C00081E090E0DF91CF911F910F91FF90EF9029
:1008D0000895F62E0B8D10E00F5F1F4F0F73112739
:1008E000E02E8C8D8E110CC00FB607FCFACFE88974
:1008F000F989808185FFF5CFCE010E942004F1CFD8
:10090000EB8DEC0FFD2FF11DE35AFF4FF0829FB7E7
:10091000F8940B8FEA89FB8980818062CFCFCF93D7
:10092000DF93EC01888D8823B9F0AA89BB89E88917
:10093000F9898C9185FD03C0808186FD0DC00FB6BD
:1009400007FCF7CF8C9185FFF2CF808185FFEDCF3B
:10095000CE010E942004E9CFDF91CF91089580E07D
:1009600090E0892B29F00E94160481110E9400005A
:1009700080E090E0892B49F080E090E0892B29F01D
:100980000E94000081110E94000080E090E0892B0D
:1009900049F080E090E0892B29F00E94000081114D
:1009A0000E94000080E090E0892B29F00E940C0456
:1009B00081110C9400000895FC018081823069F05F
:1009C00028F423E092E0813051F00895833011F152
:1009D00026E090E0843019F0089524E091E0623040
:1009E000E1F0643079F1613009F03FC041E050E05E
:1009F000BA0101C0660F9A95EAF780918F04862BA1
:100A000001C0440F2A95EAF74095482340938F048C
:100A10000C94C80227E095E0E2CF41E050E0BA0133
:100A200002C0660F771F9A95E2F7CB0180959091EF
:100A30008F04892301C0440F2A95EAF7842B809301
:100A40008F04E6CF41E050E0FA0102C0EE0FFF1F35
:100A50009A95E2F7CF0101C0440F2A95EAF7842B5B
:100A6000809590918F048923EACF0895AF92BF9229
:100A7000CF92DF92EF92FF920F931F93CF93DF936A
:100A80006B017A01EC01CA54DD4F28813CE0389FAC
:100A90008001399F100D1124A0908E04B12C27FFE6
:100AA0001FC0FB011182108288818F5F888388813B
:100AB0009801280F311D87FD3A95F6012A153B054F
:100AC0001CF488818C30C4F180819181049680343B
:100AD0009C4908F473C0F60180819181049670C02E
:100AE00088819801280F311D87FD3A952A153B050D
:100AF000DCF68881A801480F511D87FD5A95FA013F
:100B0000EE0FFF1FE40FF51FE250FC4F808186FFC0
:100B1000CBCF8881F801E80FF11D87FDFA95CF0151
:100B2000EE0FFF1FE80FF91FE250FC4F808160E0DD
:100B30008F730E943C02B8CF808191812881A801E7
:100B4000420F511D27FD5A959A01FA01EE0FFF1F22
:100B5000E20FF31FE250FC4F21813281820F931F7D
:100B6000F7019183808388819801280F311D87FDCB
:100B70003A95F901EE0FFF1FE20FF31FE250FC4F11
:100B8000808186FF22C08881080F111D87FD1A957C
:100B9000F801EE0FFF1FE00FF11FE250FC4F8081C4
:100BA00061E08F73DF91CF911F910F91FF90EF90D4
:100BB000DF90CF90BF90AF900C943C0280E49CE912
:100BC000F701918380838FEF8883DF91CF911F910D
:100BD0000F91FF90EF90DF90CF90BF90AF9008956E
:100BE0000F931F93E0919B04F0919C04808190915E
:100BF0009504892B8083E0919704F091980480817B
:100C000090919504892B80838BE290E00197F1F716
:100C1000E0919704F09198049081809195048095DB
:100C2000892380838091A304882351F0E0919B0461
:100C3000F0919C0490818091950480958923808314
:100C4000E0919904F0919A0480819091960489230F
:100C500029F090E080E01F910F9108950E94070312
:100C6000AB01BC0180919D0490919E04B0E0A0E096
:100C70008855994EAF4FBF4F840F951FA61FB71FC2
:100C800080939F049093A004A093A104B093A20426
:100C9000E0919904F0919A048081909196048923BF
:100CA00081F40E94070300919F041091A0042091F9
:100CB000A1043091A204061717072807390740F747
:100CC000C8CF0E94070320919D0430919E04620FBB
:100CD000731F811D911D60939F047093A0048093E6
:100CE000A1049093A204E0919904F0919A04808168
:100CF00090919604892381F00E94070300919F043C
:100D00001091A0042091A1043091A20406171707A6
:100D10002807390740F79DCF0E94070320919D04C3
:100D200030919E04A9014550510920919F043091B2
:100D3000A004FA01E21BF30BCF01860F971F8BCFA4
:100D4000FC0101900020E9F73197AF01481B590BD6
:100D5000BC0181E693E00C946203CF93DF930E9481
:100D6000A006EC0188E192E00E94A0068C0F9D1F76
:100D7000DF91CF91089564E08DEA94E00E94DC0455
:100D800064E08BEA94E00E94DC0464E089EA94E089
:100D90000E94DC0464E087EA94E00E94DC048BE1BA
:100DA00092E00C94AD060F931F93CF93DF93EC0169
:100DB00088819981009759F02A813B81261737074E
:100DC00030F081E0DF91CF911F910F9108958B0159
:100DD0006F5F7F4F0E946A0E009759F09983888356
:100DE0001B830A832C813D81232B59F7FC01108240
:100DF000E8CF80E0E7CF1F920F920FB60F92112439
:100E00002F933F938F939F93AF93BF938091C00293
:100E10009091C102A091C202B091C3023091BB0275
:100E200023E0230F2D3758F50196A11DB11D209306
:100E3000BB028093C0029093C102A093C202B09300
:100E4000C3028091BC029091BD02A091BE02B091FC
:100E5000BF020196A11DB11D8093BC029093BD02FB
:100E6000A093BE02B093BF02BF91AF919F918F91AB
:100E70003F912F910F900FBE0F901F90189526E86D
:100E8000230F0296A11DB11DD2CF1F920F920FB654
:100E90000F9211240BB60F922F933F934F935F93B2
:100EA0006F937F938F939F93AF93BF93EF93FF9332
:100EB00084EC92E00E942004FF91EF91BF91AF91EA
:100EC0009F918F917F916F915F914F913F912F9162
:100ED0000F900BBE0F900FBE0F901F9018951F9292
:100EE0000F920FB60F9211240BB60F922F938F9380
:100EF0009F93EF93FF93E091D402F091D50280810C
:100F0000E091DA02F091DB0282FD1DC090818091B8
:100F1000DD028F5F8F732091DE02821741F0E09136
:100F2000DD02F0E0EC53FD4F958F8093DD02FF91E1
:100F3000EF919F918F912F910F900BBE0F900FBE4D
:100F40000F901F9018958081F2CF1F920F920FB6CD
:100F50000F9211240BB60F922F933F934F935F93F1
:100F60006F937F938F939F93AF93BF93EF93FF9371
:100F700081E693E00E942004FF91EF91BF91AF9131
:100F80009F918F917F916F915F914F913F912F91A1
:100F90000F900BBE0F900FBE0F901F9018951F92D1
:100FA0000F920FB60F9211240BB60F922F938F93BF
:100FB0009F93EF93FF93E0917103F091720380810F
:100FC000E0917703F091780382FD1DC090818091BC
:100FD0007A038F5F8F7320917B03821741F0E0913A
:100FE0007A03F0E0EF59FC4F958F80937A03FF91DD
:100FF000EF919F918F912F910F900BBE0F900FBE8D
:101000000F901F9018958081F2CF1F920F920FB60C
:101010000F9211240BB60F922F933F934F935F9330
:101020006F937F938F939F93AF93BF93EF93FF93B0
:1010300048E251E064E271E090E080E00E94360511
:10104000FF91EF91BF91AF919F918F917F916F91A0
:101050005F914F913F912F910F900BBE0F900FBE5C
:101060000F901F9018951F920F920FB60F92112498
:101070000BB60F922F933F934F935F936F937F9392
:101080008F939F93AF93BF93EF93FF9348EA50E002
:1010900064EA70E083E090E00E943605FF91EF91F2
:1010A000BF91AF919F918F917F916F915F914F9180
:1010B0003F912F910F900BBE0F900FBE0F901F907E
:1010C00018951F920F920FB60F9211240BB60F9224
:1010D0002F933F934F935F936F937F938F939F9340
:1010E000AF93BF93EF93FF9348E950E064E970E05A
:1010F00082E090E00E943605FF91EF91BF91AF91A1
:101100009F918F917F916F915F914F913F912F911F
:101110000F900BBE0F900FBE0F901F9018951F924F
:101120000F920FB60F9211240BB60F922F933F938D
:101130004F935F936F937F938F939F93AF93BF93DF
:10114000EF93FF9348E850E064E870E081E090E0BE
:101150000E943605FF91EF91BF91AF919F918F91C2
:101160007F916F915F914F913F912F910F900BBEA7
:101170000F900FBE0F901F9018951F920F920FB6F1
:101180000F9211240BB60F922F933F934F935F93BF
:101190006F937F938F939F93AF93BF93EF93FF933F
:1011A000F0E0E0E01995FF91EF91BF91AF919F9131
:1011B0008F917F916F915F914F913F912F910F9000
:1011C0000BBE0F900FBE0F901F901895CF93DF931B
:1011D0001092C7021092C60248EE53E060E070E041
:1011E0004093C8025093C9026093CA027093CB0225
:1011F0008AE092E09093C5028093C40225E331E037
:101200003093D1022093D00224E331E03093D30213
:101210002093D20220E331E03093D5022093D40210
:1012200021E331E03093D7022093D60222E331E06C
:101230003093D9022093D80226E331E03093DB02C9
:101240002093DA021092DD021092DE021092DF0289
:101250001092E002109264031092630340936503BE
:1012600050936603609367037093680390936203DF
:101270008093610385EC90E090936E0380936D03FF
:1012800084EC90E09093700380936F0380EC90E087
:10129000909372038093710381EC90E090937403B8
:1012A0008093730382EC90E09093760380937503B0
:1012B00086EC90E0909378038093770310927A0302
:1012C00010927B0310927C0310927D031092900485
:1012D00081E08093AD04C2E0C093AE040E94F302AB
:1012E00080918F04837F80938F040E94C802809135
:1012F0008000816880938000DAE0D09381001092B2
:101300008900109288008BE00E946801C093AB04B2
:10131000C093AC040E94F30280918F048D7E809371
:101320008F040E94C8028091900089608093900091
:10133000D093910010929D0010929C0083E00E9437
:10134000680183E08093A904C093AA040E94F30279
:1013500080918F048F7580938F040E94C8028091C2
:10136000A00081688093A000D093A1001092A900F2
:101370001092A80086E00E94680184E08093A70490
:10138000C093A8040E94F30280918F048E7B809307
:101390008F040E94C8028091900081688093900021
:1013A000D0939100109299001092980085E00E94CD
:1013B000680180918E04803308F060C091E0980F3E
:1013C00090938E048093A40490E0FC01EE0FFF1F25
:1013D000E80FF91FE250FC4F88EB9BE0928381837A
:1013E000EAE5F2E0249120939504EBE5F2E0E49144
:1013F000E093960484E192E0FC013491E32FF0E065
:10140000EE0FFF1FEE53FE4F4591549150939804F9
:1014100040939704E5E1F2E0E491F0E0EE0FFF1F66
:10142000E855FE4F4591549150939A044093990486
:10143000FC018491E82FF0E0EE0FFF1FE257FE4F12
:10144000A591B491B0939C04A0939B041092A30423
:101450008BE59BE090939E0480939D04EC912E2B52
:101460002C93E0919704F0919804908180919504D9
:10147000809589238083DF91CF9108958FEF8093AA
:10148000A404AECFCF93DF9300D000D01F921F9261
:10149000CDB7DEB7789484B5826084BD84B58160B1
:1014A00084BD85B5826085BD85B5816085BD80912F
:1014B0006E00816080936E001092810080918100A7
:1014C000826080938100809181008160809381009F
:1014D000809180008160809380008091B100846061
:1014E0008093B1008091B00081608093B0008091C2
:1014F000910082608093910080919100816080933F
:101500009100809190008160809390008091A10073
:1015100082608093A1008091A10081608093A100EE
:101520008091A00081608093A00080912101826061
:10153000809321018091210181608093210180911C
:10154000200181608093200180917A0084608093E3
:101550007A0080917A00826080937A0080917A008C
:10156000816080937A0080917A00806880937A000D
:101570001092C10081E693E00E94870184EC92E022
:101580000E9487018091A404803308F051C08AE052
:101590000E9468018091A404282F30E0F901EE0F29
:1015A000FF1FE20FF31FE250FC4F9081907C9A6086
:1015B00090831092A5041092A6042CE0622F0E9442
:1015C000310D829FB001112430E020E0AB01420FC9
:1015D000531FFA01EE0FFF1FE40FF51FE250FC4FFF
:1015E000908196FD17C02F5F3F4F2C30310571F76A
:1015F000813009F072C01092800082E080938100F7
:101600001092850010928400B19A80916F008260E0
:1016100080936F00E091A4048E2F90E0FC01EE0F08
:10162000FF1FE80FF91FE250FC4F80818064808328
:101630008AE590E00E94AE0183E292E00E94AD064E
:101640009924939489E3482E512C612C712C84ECBD
:1016500092E00E940004892B09F4A7C01A82198223
:101660001C821B821E821D8270E060E0CE0101960A
:101670000E94D30629813A8181115BC02115310571
:1016800019F0C9010E94E10D1A8219821E821D8281
:101690001C821B820E94B20397FD53C08A309105C1
:1016A00009F44FC08F8318860D811E810F5F1F4F75
:1016B000B801CE0101960E94D306882359F32981EF
:1016C0003A818D819E81BE01695F7F4F820F931F9A
:1016D0000E945D0F1E830D83DDCF823061F4109276
:1016E000900080939100109295001092940088BB16
:1016F000809371008FCF833069F41092A00082E054
:101700008093A1001092A5001092A40089BB809341
:10171000720080CF81117ECF1092200182E08093F1
:10172000210110922501109224018ABB809373003D
:1017300071CF1E821D826AE172E0C9010E945D0FB5
:10174000A9CFC980DA80C114D10439F00D811E817E
:1017500076010115110509F095C087E592E00E9418
:10176000A0064D815E8169817A8181E693E00E94C5
:10177000620388E192E00E94A0068D819E81892B00
:1017800071F06CE672E089819A810E94540F892B76
:1017900031F49092BA028AE792E00E94AD06898104
:1017A0009A81009711F00E94E10D8091BA0288237E
:1017B00009F464C00E94F005BC0190E080E0A30140
:1017C00092010E94000D215031092F30310508F09F
:1017D000B4C08EE190E00E94AE010E942C030E94F2
:1017E000F0057C0186E990E00E94AE010E942C0386
:1017F0000E94F0058C018AE590E00E94AE01B701DD
:1018000090E080E0A30192010E94000D6901B801FF
:1018100090E080E0A30192010E94000DC216D30661
:101820000CF066C087E992E00E94AD068DEA94E074
:101830000E9413028BEA94E00E94130289EA94E06A
:101840000E94130287EA94E00E94130262E08DEA8C
:1018500094E00E94DC0462E08BEA94E00E94DC04E5
:1018600061E089EA94E00E94DC0461E087EA94E0A8
:101870000E94DC040E942C030E94BB060E94AF045D
:10188000E6CE750157018FEFA81AB80AF7018081DB
:10189000082E000C990B0E94C20C892B91F7015065
:1018A00011090C0D1D1DF8018081082E000C990BEB
:1018B0000E94C20C892B31F00E151F0518F0015043
:1018C0001109F1CFA8014F5F5F4F4E195F095E8389
:1018D0004D83CE14DF0420F4B701C6010E944B0FE4
:1018E000E981FA818D819E81E80FF91F108235CF41
:1018F00084EA92E00E94AD068DEA94E00E94130211
:101900008BEA94E00E94130289EA94E00E94130299
:1019100087EA94E00E94130261E08DEA94E00E945D
:10192000DC0461E08BEA94E00E94DC0462E089EA76
:1019300094E00E94DC0462E099CF8DEA94E00E947A
:1019400013028BEA94E00E94130289EA94E00E9459
:10195000130287EA94E00E94130261E08DEA94E0AA
:101960000E94DC0461E08BEA94E00E94DC0461E008
:1019700089EA94E00E94DC0461E087EA94E00E9436
:10198000DC047CCF91110C94CB0C803219F089507F
:101990008550C8F70895992788270895052E97FB45
:1019A0001EF400940E94E50C57FD07D00E94000D24
:1019B00007FC03D04EF40C94E50C509540953095FF
:1019C00021953F4F4F4F5F4F0895909580957095AB
:1019D00061957F4F8F4F9F4F08950E94220DA59FC5
:1019E000900DB49F900DA49F800D911D112408951A
:1019F000B7FF0C94ED0C0E94ED0C821B930B089525
:101A0000A1E21A2EAA1BBB1BFD010DC0AA1FBB1F02
:101A1000EE1FFF1FA217B307E407F50720F0A21B74
:101A2000B30BE40BF50B661F771F881F991F1A94E1
:101A300069F760957095809590959B01AC01BD010B
:101A4000CF010895A29FB001B39FC001A39F700D65
:101A5000811D1124911DB29F700D811D1124911DB6
:101A60000895991B79E004C0991F961708F0961BFA
:101A7000881F7A95C9F780950895EE0FFF1F881F7C
:101A80008BBF0790F691E02D19940F931F93CF937E
:101A9000DF938230910510F482E090E0E091B10490
:101AA000F091B20430E020E0B0E0A0E0309799F48B
:101AB0002115310509F44AC0281B390B24303105A2
:101AC000D8F58A819B816115710589F1FB019383AA
:101AD0008283FE0111C04081518102811381481728
:101AE0005907E0F04817590799F4109761F01296DA
:101AF0000C93129713961C933296CF01DF91CF91DE
:101B00001F910F9108950093B1041093B204F4CF84
:101B10002115310551F04217530738F0A901DB01B7
:101B20009A01BD01DF01F801C1CFEF01F9CF909318
:101B3000B2048093B104CDCFFE01E20FF31F819375
:101B400091932250310939832883D7CF2091AF0454
:101B50003091B004232B41F4209102023091030212
:101B60003093B0042093AF04209100023091010221
:101B70002115310541F42DB73EB740910402509133
:101B80000502241B350BE091AF04F091B004E2177D
:101B9000F307A0F42E1B3F0B2817390778F0AC0190
:101BA0004E5F5F4F2417350748F04E0F5F1F50936D
:101BB000B0044093AF04819391939FCFF0E0E0E0B5
:101BC0009CCFCF93DF930097E9F0FC01329713820B
:101BD0001282A091B104B091B204ED0130E020E096
:101BE0001097A1F420813181820F931F2091AF04BF
:101BF0003091B0042817390709F061C0F093B004A0
:101C0000E093AF04DF91CF910895EA01CE17DF078B
:101C1000E8F54A815B819E0141155105B1F7E90163
:101C2000FB83EA8349915991C40FD51FEC17FD0737
:101C300061F4808191810296840F951FE901998357
:101C40008883828193819B838A83F0E0E0E012960F
:101C50008D919C9113970097B9F52D913C91119717
:101C6000CD010296820F931F2091AF043091B004F2
:101C70002817390739F6309751F51092B2041092AF
:101C8000B104B093B004A093AF04BCCFD383C2839C
:101C900040815181840F951FC817D90761F44E5FA9
:101CA0005F4F88819981480F591F518340838A81F2
:101CB0009B81938382832115310509F0B0CFF09386
:101CC000B204E093B1049ECFFD01DC01C0CF1382CA
:101CD0001282D7CF4F925F926F927F928F929F9294
:101CE000AF92BF92CF92DF92EF92FF920F931F932A
:101CF000CF93DF938C01009799F4CB01DF91CF91C3
:101D00001F910F91FF90EF90DF90CF90BF90AF9019
:101D10009F908F907F906F905F904F900C94450DA7
:101D2000FC01E60FF71F9C0122503109E217F3076F
:101D300008F4AEC0D901CD91DC911197C617D70731
:101D400020F1C530D10578F0CE01049786179707AA
:101D500050F0C61BD70B2297C193D1936D937C9300
:101D6000CF010E94E10DC801DF91CF911F910F912A
:101D7000FF90EF90DF90CF90BF90AF909F908F90AB
:101D80007F906F905F904F9008955B01AC1ABD0AF1
:101D90004C018C0E9D1EA091B104B091B204512C47
:101DA000412CF12CE12C109731F58091AF049091EA
:101DB000B0048815990509F05CC04616570608F06E
:101DC00058C08091000290910102009741F48DB7B4
:101DD0009EB74091040250910502841B950BE817B1
:101DE000F90708F055C0F093B004E093AF04F9018F
:101DF00071836083B8CF8D919C91119712966C90EE
:101E0000129713967C901397A815B90559F56C0194
:101E100042E0C40ED11CCA14DB0420F1AC014A1903
:101E20005B09DA011296159780F062827382518302
:101E30004083D9016D937C93E114F10471F0D701D3
:101E40001396FC93EE9312978ECF22968C0F9D1FC4
:101E5000F90191838083F301EFCFF093B204E09313
:101E6000B10481CF4816590608F42C017D01D30135
:101E70009ACFCB010E94450D7C01009749F0AE013D
:101E8000B8010E944B0FC8010E94E10D87016BCF82
:101E900010E000E068CFFB01DC0102C001900D9270
:101EA00041505040D8F70895FB01DC018D9101901D
:101EB00080190110D9F3990B0895FB01DC01019001
:0C1EC0000D920020E1F70895F894FFCF88
:101ECC000000B304800000000000420462038F0392
:101EDC008F0400049E03F2030D0A0053746F70709C
:101EEC0065640041726475696E6F204D6567612091
:101EFC00697320726561647920616E642077616911
:101F0C0074696E6720666F722064697265637469A8
:101F1C006F6E732E2E2E0052656365697665642094
:101F2C00646972656374696F6E3A200067756964E1
:101F3C00653A6C696272617279004E6176696761AB
:101F4C0074696E6720746F20746865206C696272A6
:101F5C006172792E2E2E005475726E696E67204C4C
:101F6C00656674005475726E696E67205269676895
:021F7C007400EF
:00000001FF
